{
  "_format": "hh-sol-artifact-1",
  "contractName": "PatientRecord",
  "sourceName": "contracts/PatientRecord.sol",
  "abi": [
    {
      "inputs": [
        {
          "internalType": "string",
          "name": "_name",
          "type": "string"
        },
        {
          "internalType": "uint256",
          "name": "_age",
          "type": "uint256"
        },
        {
          "internalType": "string",
          "name": "_gender",
          "type": "string"
        },
        {
          "internalType": "string",
          "name": "_medicalHistory",
          "type": "string"
        }
      ],
      "name": "addOrUpdatePatient",
      "outputs": [],
      "stateMutability": "nonpayable",
      "type": "function"
    },
    {
      "inputs": [],
      "name": "getAllPatients",
      "outputs": [
        {
          "internalType": "address[]",
          "name": "",
          "type": "address[]"
        }
      ],
      "stateMutability": "view",
      "type": "function"
    },
    {
      "inputs": [
        {
          "internalType": "address",
          "name": "_patientAddress",
          "type": "address"
        }
      ],
      "name": "getPatient",
      "outputs": [
        {
          "internalType": "string",
          "name": "name",
          "type": "string"
        },
        {
          "internalType": "uint256",
          "name": "age",
          "type": "uint256"
        },
        {
          "internalType": "string",
          "name": "gender",
          "type": "string"
        },
        {
          "internalType": "string",
          "name": "medicalHistory",
          "type": "string"
        }
      ],
      "stateMutability": "view",
      "type": "function"
    }
  ],
  "bytecode": "0x608060405234801561001057600080fd5b50610a30806100206000396000f3fe608060405234801561001057600080fd5b50600436106100415760003560e01c806318a231a914610046578063b5368e2014610064578063db13d81014610097575b600080fd5b61004e6100b3565b60405161005b919061077b565b60405180910390f35b61007e600480360381019061007991906105da565b610141565b60405161008e949392919061079d565b60405180910390f35b6100b160048036038101906100ac9190610603565b610379565b005b6060600180548060200260200160405190810160405280929190818152602001828054801561013757602002820191906000526020600020905b8160009054906101000a900473ffffffffffffffffffffffffffffffffffffffff1673ffffffffffffffffffffffffffffffffffffffff16815260200190600101908083116100ed575b5050505050905090565b6060600060608060008060008773ffffffffffffffffffffffffffffffffffffffff1673ffffffffffffffffffffffffffffffffffffffff1681526020019081526020016000206040518060800160405290816000820180546101a39061092b565b80601f01602080910402602001604051908101604052809291908181526020018280546101cf9061092b565b801561021c5780601f106101f15761010080835404028352916020019161021c565b820191906000526020600020905b8154815290600101906020018083116101ff57829003601f168201915b505050505081526020016001820154815260200160028201805461023f9061092b565b80601f016020809104026020016040519081016040528092919081815260200182805461026b9061092b565b80156102b85780601f1061028d576101008083540402835291602001916102b8565b820191906000526020600020905b81548152906001019060200180831161029b57829003601f168201915b505050505081526020016003820180546102d19061092b565b80601f01602080910402602001604051908101604052809291908181526020018280546102fd9061092b565b801561034a5780601f1061031f5761010080835404028352916020019161034a565b820191906000526020600020905b81548152906001019060200180831161032d57829003601f168201915b505050505081525050905080600001518160200151826040015183606001519450945094509450509193509193565b6040518060800160405280858152602001848152602001838152602001828152506000803373ffffffffffffffffffffffffffffffffffffffff1673ffffffffffffffffffffffffffffffffffffffff16815260200190815260200160002060008201518160000190805190602001906103f49291906104a5565b5060208201518160010155604082015181600201908051906020019061041b9291906104a5565b5060608201518160030190805190602001906104389291906104a5565b509050506001339080600181540180825580915050600190039060005260206000200160009091909190916101000a81548173ffffffffffffffffffffffffffffffffffffffff021916908373ffffffffffffffffffffffffffffffffffffffff16021790555050505050565b8280546104b19061092b565b90600052602060002090601f0160209004810192826104d3576000855561051a565b82601f106104ec57805160ff191683800117855561051a565b8280016001018555821561051a579182015b828111156105195782518255916020019190600101906104fe565b5b509050610527919061052b565b5090565b5b8082111561054457600081600090555060010161052c565b5090565b600061055b61055684610828565b6107f7565b90508281526020810184848401111561057357600080fd5b61057e8482856108e9565b509392505050565b600081359050610595816109cc565b92915050565b600082601f8301126105ac57600080fd5b81356105bc848260208601610548565b91505092915050565b6000813590506105d4816109e3565b92915050565b6000602082840312156105ec57600080fd5b60006105fa84828501610586565b91505092915050565b6000806000806080858703121561061957600080fd5b600085013567ffffffffffffffff81111561063357600080fd5b61063f8782880161059b565b9450506020610650878288016105c5565b935050604085013567ffffffffffffffff81111561066d57600080fd5b6106798782880161059b565b925050606085013567ffffffffffffffff81111561069657600080fd5b6106a28782880161059b565b91505092959194509250565b60006106ba83836106c6565b60208301905092915050565b6106cf816108ad565b82525050565b60006106e082610868565b6106ea818561088b565b93506106f583610858565b8060005b8381101561072657815161070d88826106ae565b97506107188361087e565b9250506001810190506106f9565b5085935050505092915050565b600061073e82610873565b610748818561089c565b93506107588185602086016108f8565b610761816109bb565b840191505092915050565b610775816108df565b82525050565b6000602082019050818103600083015261079581846106d5565b905092915050565b600060808201905081810360008301526107b78187610733565b90506107c6602083018661076c565b81810360408301526107d88185610733565b905081810360608301526107ec8184610733565b905095945050505050565b6000604051905081810181811067ffffffffffffffff8211171561081e5761081d61098c565b5b8060405250919050565b600067ffffffffffffffff8211156108435761084261098c565b5b601f19601f8301169050602081019050919050565b6000819050602082019050919050565b600081519050919050565b600081519050919050565b6000602082019050919050565b600082825260208201905092915050565b600082825260208201905092915050565b60006108b8826108bf565b9050919050565b600073ffffffffffffffffffffffffffffffffffffffff82169050919050565b6000819050919050565b82818337600083830152505050565b60005b838110156109165780820151818401526020810190506108fb565b83811115610925576000848401525b50505050565b6000600282049050600182168061094357607f821691505b602082108114156109575761095661095d565b5b50919050565b7f4e487b7100000000000000000000000000000000000000000000000000000000600052602260045260246000fd5b7f4e487b7100000000000000000000000000000000000000000000000000000000600052604160045260246000fd5b6000601f19601f8301169050919050565b6109d5816108ad565b81146109e057600080fd5b50565b6109ec816108df565b81146109f757600080fd5b5056fea26469706673582212207213f9b2ea684907051bb7bb98f24931b5e6ee9c4751ef037e8e52ddb6cc164b64736f6c63430008000033",
  "linkReferences": {},
  "deployedLinkReferences": {}
}